{
	"contracts/FundMe.sol": {
		"FundMe": {
			"abi": [
				{
					"inputs": [],
					"stateMutability": "nonpayable",
					"type": "constructor"
				},
				{
					"inputs": [],
					"name": "NotOwner",
					"type": "error"
				},
				{
					"stateMutability": "payable",
					"type": "fallback"
				},
				{
					"inputs": [],
					"name": "fund",
					"outputs": [],
					"stateMutability": "payable",
					"type": "function"
				},
				{
					"inputs": [
						{
							"internalType": "uint256",
							"name": "",
							"type": "uint256"
						}
					],
					"name": "funders",
					"outputs": [
						{
							"internalType": "address",
							"name": "",
							"type": "address"
						}
					],
					"stateMutability": "view",
					"type": "function"
				},
				{
					"inputs": [],
					"name": "i_owner",
					"outputs": [
						{
							"internalType": "address",
							"name": "",
							"type": "address"
						}
					],
					"stateMutability": "view",
					"type": "function"
				},
				{
					"inputs": [],
					"name": "minimumUsd",
					"outputs": [
						{
							"internalType": "uint256",
							"name": "",
							"type": "uint256"
						}
					],
					"stateMutability": "view",
					"type": "function"
				},
				{
					"inputs": [],
					"name": "withdraw",
					"outputs": [],
					"stateMutability": "nonpayable",
					"type": "function"
				},
				{
					"stateMutability": "payable",
					"type": "receive"
				}
			],
			"devdoc": {
				"kind": "dev",
				"methods": {},
				"version": 1
			},
			"evm": {
				"assembly": "    /* \"contracts/FundMe.sol\":248:1816  contract FundMe {... */\n  mstore(0x40, 0xa0)\n    /* \"contracts/FundMe.sol\":592:642  constructor(){... */\n  callvalue\n  dup1\n  iszero\n  tag_1\n  jumpi\n  0x00\n  dup1\n  revert\ntag_1:\n  pop\n    /* \"contracts/FundMe.sol\":625:635  msg.sender */\n  caller\n    /* \"contracts/FundMe.sol\":615:635  i_owner = msg.sender */\n  0xffffffffffffffffffffffffffffffffffffffff\n  and\n  0x80\n  dup2\n  0xffffffffffffffffffffffffffffffffffffffff\n  and\n  dup2\n  mstore\n  pop\n  pop\n    /* \"contracts/FundMe.sol\":248:1816  contract FundMe {... */\n  mload(0x80)\n  codecopy(0x00, dataOffset(sub_0), dataSize(sub_0))\n  0x00\n  assignImmutable(\"0x35bb2e240092263378f77ea1e9c278099a33b604c4c4e26d13ea227e8bb74470\")\n  return(0x00, dataSize(sub_0))\nstop\n\nsub_0: assembly {\n        /* \"contracts/FundMe.sol\":248:1816  contract FundMe {... */\n      mstore(0x40, 0x80)\n      jumpi(tag_1, lt(calldatasize, 0x04))\n      shr(0xe0, calldataload(0x00))\n      dup1\n      0x098de820\n      eq\n      tag_3\n      jumpi\n      dup1\n      0x3ccfd60b\n      eq\n      tag_4\n      jumpi\n      dup1\n      0xb60d4288\n      eq\n      tag_5\n      jumpi\n      dup1\n      0xdba6335f\n      eq\n      tag_6\n      jumpi\n      dup1\n      0xdc0d3dff\n      eq\n      tag_7\n      jumpi\n      jump(tag_2)\n    tag_1:\n      jumpi(tag_2, calldatasize)\n        /* \"contracts/FundMe.sol\":1742:1748  fund() */\n      tag_10\n        /* \"contracts/FundMe.sol\":1742:1746  fund */\n      tag_11\n        /* \"contracts/FundMe.sol\":1742:1748  fund() */\n      jump\t// in\n    tag_10:\n        /* \"contracts/FundMe.sol\":248:1816  contract FundMe {... */\n      stop\n    tag_2:\n        /* \"contracts/FundMe.sol\":1800:1806  fund() */\n      tag_14\n        /* \"contracts/FundMe.sol\":1800:1804  fund */\n      tag_11\n        /* \"contracts/FundMe.sol\":1800:1806  fund() */\n      jump\t// in\n    tag_14:\n        /* \"contracts/FundMe.sol\":248:1816  contract FundMe {... */\n      stop\n        /* \"contracts/FundMe.sol\":388:429  uint256 public constant minimumUsd = 5e18 */\n    tag_3:\n      callvalue\n      dup1\n      iszero\n      tag_15\n      jumpi\n      0x00\n      dup1\n      revert\n    tag_15:\n      pop\n      tag_16\n      tag_17\n      jump\t// in\n    tag_16:\n      mload(0x40)\n      tag_18\n      swap2\n      swap1\n      tag_19\n      jump\t// in\n    tag_18:\n      mload(0x40)\n      dup1\n      swap2\n      sub\n      swap1\n      return\n        /* \"contracts/FundMe.sol\":1046:1571  function withdraw() public onlyOwner{... */\n    tag_4:\n      callvalue\n      dup1\n      iszero\n      tag_20\n      jumpi\n      0x00\n      dup1\n      revert\n    tag_20:\n      pop\n      tag_21\n      tag_22\n      jump\t// in\n    tag_21:\n      stop\n        /* \"contracts/FundMe.sol\":771:1040  function fund() public payable {... */\n    tag_5:\n      tag_23\n      tag_11\n      jump\t// in\n    tag_23:\n      stop\n        /* \"contracts/FundMe.sol\":553:585  address public immutable i_owner */\n    tag_6:\n      callvalue\n      dup1\n      iszero\n      tag_24\n      jumpi\n      0x00\n      dup1\n      revert\n    tag_24:\n      pop\n      tag_25\n      tag_26\n      jump\t// in\n    tag_25:\n      mload(0x40)\n      tag_27\n      swap2\n      swap1\n      tag_28\n      jump\t// in\n    tag_27:\n      mload(0x40)\n      dup1\n      swap2\n      sub\n      swap1\n      return\n        /* \"contracts/FundMe.sol\":436:460  address[] public funders */\n    tag_7:\n      callvalue\n      dup1\n      iszero\n      tag_29\n      jumpi\n      0x00\n      dup1\n      revert\n    tag_29:\n      pop\n      tag_30\n      0x04\n      dup1\n      calldatasize\n      sub\n      dup2\n      add\n      swap1\n      tag_31\n      swap2\n      swap1\n      tag_32\n      jump\t// in\n    tag_31:\n      tag_33\n      jump\t// in\n    tag_30:\n      mload(0x40)\n      tag_34\n      swap2\n      swap1\n      tag_28\n      jump\t// in\n    tag_34:\n      mload(0x40)\n      dup1\n      swap2\n      sub\n      swap1\n      return\n        /* \"contracts/FundMe.sol\":771:1040  function fund() public payable {... */\n    tag_11:\n        /* \"contracts/FundMe.sol\":425:429  5e18 */\n      0x4563918244f40000\n        /* \"contracts/FundMe.sol\":820:829  msg.value */\n      callvalue\n        /* \"contracts/FundMe.sol\":820:847  msg.value.getConversionRate */\n      linkerSymbol(\"970d497a1df28a900e3dd97e15a13b1baeeba470cc419874572e93617a0043b2\")\n      0x6e5b6b28\n      swap1\n      swap2\n        /* \"contracts/FundMe.sol\":820:849  msg.value.getConversionRate() */\n      mload(0x40)\n      dup3\n      0xffffffff\n      and\n      0xe0\n      shl\n      dup2\n      mstore\n      0x04\n      add\n      tag_36\n      swap2\n      swap1\n      tag_37\n      jump\t// in\n    tag_36:\n      0x20\n      mload(0x40)\n      dup1\n      dup4\n      sub\n      dup2\n      dup7\n      gas\n      delegatecall\n      iszero\n      dup1\n      iszero\n      tag_39\n      jumpi\n      returndatasize\n      0x00\n      dup1\n      returndatacopy\n      revert(0x00, returndatasize)\n    tag_39:\n      pop\n      pop\n      pop\n      pop\n      mload(0x40)\n      returndatasize\n      not(0x1f)\n      0x1f\n      dup3\n      add\n      and\n      dup3\n      add\n      dup1\n      0x40\n      mstore\n      pop\n      dup2\n      add\n      swap1\n      tag_40\n      swap2\n      swap1\n      tag_41\n      jump\t// in\n    tag_40:\n        /* \"contracts/FundMe.sol\":820:863  msg.value.getConversionRate() >= minimumUsd */\n      lt\n      iszero\n        /* \"contracts/FundMe.sol\":812:892  require(msg.value.getConversionRate() >= minimumUsd,\"Not enough eth to proceed\") */\n      tag_42\n      jumpi\n      mload(0x40)\n      0x08c379a000000000000000000000000000000000000000000000000000000000\n      dup2\n      mstore\n      0x04\n      add\n      tag_43\n      swap1\n      tag_44\n      jump\t// in\n    tag_43:\n      mload(0x40)\n      dup1\n      swap2\n      sub\n      swap1\n      revert\n    tag_42:\n        /* \"contracts/FundMe.sol\":918:925  funders */\n      0x00\n        /* \"contracts/FundMe.sol\":931:941  msg.sender */\n      caller\n        /* \"contracts/FundMe.sol\":918:942  funders.push(msg.sender) */\n      swap1\n      dup1\n      0x01\n      dup2\n      sload\n      add\n      dup1\n      dup3\n      sstore\n      dup1\n      swap2\n      pop\n      pop\n      0x01\n      swap1\n      sub\n      swap1\n      0x00\n      mstore\n      keccak256(0x00, 0x20)\n      add\n      0x00\n      swap1\n      swap2\n      swap1\n      swap2\n      swap1\n      swap2\n      0x0100\n      exp\n      dup2\n      sload\n      dup2\n      0xffffffffffffffffffffffffffffffffffffffff\n      mul\n      not\n      and\n      swap1\n      dup4\n      0xffffffffffffffffffffffffffffffffffffffff\n      and\n      mul\n      or\n      swap1\n      sstore\n      pop\n        /* \"contracts/FundMe.sol\":1024:1033  msg.value */\n      callvalue\n        /* \"contracts/FundMe.sol\":988:1009  addressToAmountFunded */\n      0x01\n        /* \"contracts/FundMe.sol\":988:1021  addressToAmountFunded[msg.sender] */\n      0x00\n        /* \"contracts/FundMe.sol\":1010:1020  msg.sender */\n      caller\n        /* \"contracts/FundMe.sol\":988:1021  addressToAmountFunded[msg.sender] */\n      0xffffffffffffffffffffffffffffffffffffffff\n      and\n      0xffffffffffffffffffffffffffffffffffffffff\n      and\n      dup2\n      mstore\n      0x20\n      add\n      swap1\n      dup2\n      mstore\n      0x20\n      add\n      0x00\n      keccak256\n      sload\n        /* \"contracts/FundMe.sol\":988:1033  addressToAmountFunded[msg.sender] + msg.value */\n      tag_46\n      swap2\n      swap1\n      tag_47\n      jump\t// in\n    tag_46:\n        /* \"contracts/FundMe.sol\":952:973  addressToAmountFunded */\n      0x01\n        /* \"contracts/FundMe.sol\":952:985  addressToAmountFunded[msg.sender] */\n      0x00\n        /* \"contracts/FundMe.sol\":974:984  msg.sender */\n      caller\n        /* \"contracts/FundMe.sol\":952:985  addressToAmountFunded[msg.sender] */\n      0xffffffffffffffffffffffffffffffffffffffff\n      and\n      0xffffffffffffffffffffffffffffffffffffffff\n      and\n      dup2\n      mstore\n      0x20\n      add\n      swap1\n      dup2\n      mstore\n      0x20\n      add\n      0x00\n      keccak256\n        /* \"contracts/FundMe.sol\":952:1033  addressToAmountFunded[msg.sender] = addressToAmountFunded[msg.sender] + msg.value */\n      dup2\n      swap1\n      sstore\n      pop\n        /* \"contracts/FundMe.sol\":771:1040  function fund() public payable {... */\n      jump\t// out\n        /* \"contracts/FundMe.sol\":388:429  uint256 public constant minimumUsd = 5e18 */\n    tag_17:\n        /* \"contracts/FundMe.sol\":425:429  5e18 */\n      0x4563918244f40000\n        /* \"contracts/FundMe.sol\":388:429  uint256 public constant minimumUsd = 5e18 */\n      dup2\n      jump\t// out\n        /* \"contracts/FundMe.sol\":1046:1571  function withdraw() public onlyOwner{... */\n    tag_22:\n        /* \"contracts/FundMe.sol\":694:701  i_owner */\n      immutable(\"0x35bb2e240092263378f77ea1e9c278099a33b604c4c4e26d13ea227e8bb74470\")\n        /* \"contracts/FundMe.sol\":680:701  msg.sender != i_owner */\n      0xffffffffffffffffffffffffffffffffffffffff\n      and\n        /* \"contracts/FundMe.sol\":680:690  msg.sender */\n      caller\n        /* \"contracts/FundMe.sol\":680:701  msg.sender != i_owner */\n      0xffffffffffffffffffffffffffffffffffffffff\n      and\n      eq\n        /* \"contracts/FundMe.sol\":677:744  if(msg.sender != i_owner){... */\n      tag_49\n      jumpi\n        /* \"contracts/FundMe.sol\":723:733  NotOwner() */\n      mload(0x40)\n      0x30cd747100000000000000000000000000000000000000000000000000000000\n      dup2\n      mstore\n      0x04\n      add\n      mload(0x40)\n      dup1\n      swap2\n      sub\n      swap1\n      revert\n        /* \"contracts/FundMe.sol\":677:744  if(msg.sender != i_owner){... */\n    tag_49:\n        /* \"contracts/FundMe.sol\":1096:1115  uint256 funderIndex */\n      0x00\n        /* \"contracts/FundMe.sol\":1092:1231  for(uint256 funderIndex=0;funderIndex<funders.length;funderIndex++){... */\n    tag_51:\n        /* \"contracts/FundMe.sol\":1130:1137  funders */\n      0x00\n        /* \"contracts/FundMe.sol\":1130:1144  funders.length */\n      dup1\n      sload\n      swap1\n      pop\n        /* \"contracts/FundMe.sol\":1118:1129  funderIndex */\n      dup2\n        /* \"contracts/FundMe.sol\":1118:1144  funderIndex<funders.length */\n      lt\n        /* \"contracts/FundMe.sol\":1092:1231  for(uint256 funderIndex=0;funderIndex<funders.length;funderIndex++){... */\n      iszero\n      tag_52\n      jumpi\n        /* \"contracts/FundMe.sol\":1219:1220  0 */\n      0x00\n        /* \"contracts/FundMe.sol\":1173:1194  addressToAmountFunded */\n      0x01\n        /* \"contracts/FundMe.sol\":1173:1216  addressToAmountFunded[funders[funderIndex]] */\n      0x00\n        /* \"contracts/FundMe.sol\":1195:1202  funders */\n      dup1\n        /* \"contracts/FundMe.sol\":1203:1214  funderIndex */\n      dup5\n        /* \"contracts/FundMe.sol\":1195:1215  funders[funderIndex] */\n      dup2\n      sload\n      dup2\n      lt\n      tag_54\n      jumpi\n      tag_55\n      tag_56\n      jump\t// in\n    tag_55:\n    tag_54:\n      swap1\n      0x00\n      mstore\n      keccak256(0x00, 0x20)\n      add\n      0x00\n      swap1\n      sload\n      swap1\n      0x0100\n      exp\n      swap1\n      div\n      0xffffffffffffffffffffffffffffffffffffffff\n      and\n        /* \"contracts/FundMe.sol\":1173:1216  addressToAmountFunded[funders[funderIndex]] */\n      0xffffffffffffffffffffffffffffffffffffffff\n      and\n      0xffffffffffffffffffffffffffffffffffffffff\n      and\n      dup2\n      mstore\n      0x20\n      add\n      swap1\n      dup2\n      mstore\n      0x20\n      add\n      0x00\n      keccak256\n        /* \"contracts/FundMe.sol\":1173:1220  addressToAmountFunded[funders[funderIndex]] = 0 */\n      dup2\n      swap1\n      sstore\n      pop\n        /* \"contracts/FundMe.sol\":1145:1158  funderIndex++ */\n      dup1\n      dup1\n      0x01\n      add\n      swap2\n      pop\n      pop\n        /* \"contracts/FundMe.sol\":1092:1231  for(uint256 funderIndex=0;funderIndex<funders.length;funderIndex++){... */\n      jump(tag_51)\n    tag_52:\n      pop\n        /* \"contracts/FundMe.sol\":1289:1290  0 */\n      0x00\n        /* \"contracts/FundMe.sol\":1275:1291  new address[](0) */\n      0xffffffffffffffff\n      dup2\n      gt\n      iszero\n      tag_58\n      jumpi\n      tag_59\n      tag_60\n      jump\t// in\n    tag_59:\n    tag_58:\n      mload(0x40)\n      swap1\n      dup1\n      dup3\n      mstore\n      dup1\n      0x20\n      mul\n      0x20\n      add\n      dup3\n      add\n      0x40\n      mstore\n      dup1\n      iszero\n      tag_61\n      jumpi\n      dup2\n      0x20\n      add\n      0x20\n      dup3\n      mul\n      dup1\n      calldatasize\n      dup4\n      calldatacopy\n      dup1\n      dup3\n      add\n      swap2\n      pop\n      pop\n      swap1\n      pop\n    tag_61:\n      pop\n        /* \"contracts/FundMe.sol\":1265:1272  funders */\n      0x00\n        /* \"contracts/FundMe.sol\":1265:1291  funders = new address[](0) */\n      swap1\n      dup1\n      mload\n      swap1\n      0x20\n      add\n      swap1\n      tag_62\n      swap3\n      swap2\n      swap1\n      tag_63\n      jump\t// in\n    tag_62:\n      pop\n        /* \"contracts/FundMe.sol\":1449:1458  bool sent */\n      0x00\n        /* \"contracts/FundMe.sol\":1470:1480  msg.sender */\n      caller\n        /* \"contracts/FundMe.sol\":1462:1486  payable(msg.sender).call */\n      0xffffffffffffffffffffffffffffffffffffffff\n      and\n        /* \"contracts/FundMe.sol\":1493:1514  address(this).balance */\n      selfbalance\n        /* \"contracts/FundMe.sol\":1462:1519  payable(msg.sender).call{value:address(this).balance}(\"\") */\n      mload(0x40)\n      tag_64\n      swap1\n      tag_65\n      jump\t// in\n    tag_64:\n      0x00\n      mload(0x40)\n      dup1\n      dup4\n      sub\n      dup2\n      dup6\n      dup8\n      gas\n      call\n      swap3\n      pop\n      pop\n      pop\n      returndatasize\n      dup1\n      0x00\n      dup2\n      eq\n      tag_68\n      jumpi\n      mload(0x40)\n      swap2\n      pop\n      and(add(returndatasize, 0x3f), not(0x1f))\n      dup3\n      add\n      0x40\n      mstore\n      returndatasize\n      dup3\n      mstore\n      returndatasize\n      0x00\n      0x20\n      dup5\n      add\n      returndatacopy\n      jump(tag_67)\n    tag_68:\n      0x60\n      swap2\n      pop\n    tag_67:\n      pop\n        /* \"contracts/FundMe.sol\":1448:1519  (bool sent,) =payable(msg.sender).call{value:address(this).balance}(\"\") */\n      pop\n      swap1\n      pop\n        /* \"contracts/FundMe.sol\":1538:1542  sent */\n      dup1\n        /* \"contracts/FundMe.sol\":1530:1564  require(sent,\"Transaction failed\") */\n      tag_69\n      jumpi\n      mload(0x40)\n      0x08c379a000000000000000000000000000000000000000000000000000000000\n      dup2\n      mstore\n      0x04\n      add\n      tag_70\n      swap1\n      tag_71\n      jump\t// in\n    tag_70:\n      mload(0x40)\n      dup1\n      swap2\n      sub\n      swap1\n      revert\n    tag_69:\n        /* \"contracts/FundMe.sol\":1082:1571  {... */\n      pop\n        /* \"contracts/FundMe.sol\":1046:1571  function withdraw() public onlyOwner{... */\n      jump\t// out\n        /* \"contracts/FundMe.sol\":553:585  address public immutable i_owner */\n    tag_26:\n      immutable(\"0x35bb2e240092263378f77ea1e9c278099a33b604c4c4e26d13ea227e8bb74470\")\n      dup2\n      jump\t// out\n        /* \"contracts/FundMe.sol\":436:460  address[] public funders */\n    tag_33:\n      0x00\n      dup2\n      dup2\n      sload\n      dup2\n      lt\n      tag_72\n      jumpi\n      0x00\n      dup1\n      revert\n    tag_72:\n      swap1\n      0x00\n      mstore\n      keccak256(0x00, 0x20)\n      add\n      0x00\n      swap2\n      pop\n      sload\n      swap1\n      0x0100\n      exp\n      swap1\n      div\n      0xffffffffffffffffffffffffffffffffffffffff\n      and\n      dup2\n      jump\t// out\n    tag_63:\n      dup3\n      dup1\n      sload\n      dup3\n      dup3\n      sstore\n      swap1\n      0x00\n      mstore\n      keccak256(0x00, 0x20)\n      swap1\n      dup2\n      add\n      swap3\n      dup3\n      iszero\n      tag_74\n      jumpi\n      swap2\n      0x20\n      mul\n      dup3\n      add\n    tag_75:\n      dup3\n      dup2\n      gt\n      iszero\n      tag_76\n      jumpi\n      dup3\n      mload\n      dup3\n      exp(0x0100, 0x00)\n      dup2\n      sload\n      dup2\n      0xffffffffffffffffffffffffffffffffffffffff\n      mul\n      not\n      and\n      swap1\n      dup4\n      0xffffffffffffffffffffffffffffffffffffffff\n      and\n      mul\n      or\n      swap1\n      sstore\n      pop\n      swap2\n      0x20\n      add\n      swap2\n      swap1\n      0x01\n      add\n      swap1\n      jump(tag_75)\n    tag_76:\n    tag_74:\n      pop\n      swap1\n      pop\n      tag_77\n      swap2\n      swap1\n      tag_78\n      jump\t// in\n    tag_77:\n      pop\n      swap1\n      jump\t// out\n    tag_78:\n    tag_79:\n      dup1\n      dup3\n      gt\n      iszero\n      tag_80\n      jumpi\n      0x00\n      dup2\n      0x00\n      swap1\n      sstore\n      pop\n      0x01\n      add\n      jump(tag_79)\n    tag_80:\n      pop\n      swap1\n      jump\t// out\n        /* \"#utility.yul\":7:84   */\n    tag_81:\n        /* \"#utility.yul\":44:51   */\n      0x00\n        /* \"#utility.yul\":73:78   */\n      dup2\n        /* \"#utility.yul\":62:78   */\n      swap1\n      pop\n        /* \"#utility.yul\":7:84   */\n      swap2\n      swap1\n      pop\n      jump\t// out\n        /* \"#utility.yul\":90:208   */\n    tag_82:\n        /* \"#utility.yul\":177:201   */\n      tag_105\n        /* \"#utility.yul\":195:200   */\n      dup2\n        /* \"#utility.yul\":177:201   */\n      tag_81\n      jump\t// in\n    tag_105:\n        /* \"#utility.yul\":172:175   */\n      dup3\n        /* \"#utility.yul\":165:202   */\n      mstore\n        /* \"#utility.yul\":90:208   */\n      pop\n      pop\n      jump\t// out\n        /* \"#utility.yul\":214:436   */\n    tag_19:\n        /* \"#utility.yul\":307:311   */\n      0x00\n        /* \"#utility.yul\":345:347   */\n      0x20\n        /* \"#utility.yul\":334:343   */\n      dup3\n        /* \"#utility.yul\":330:348   */\n      add\n        /* \"#utility.yul\":322:348   */\n      swap1\n      pop\n        /* \"#utility.yul\":358:429   */\n      tag_107\n        /* \"#utility.yul\":426:427   */\n      0x00\n        /* \"#utility.yul\":415:424   */\n      dup4\n        /* \"#utility.yul\":411:428   */\n      add\n        /* \"#utility.yul\":402:408   */\n      dup5\n        /* \"#utility.yul\":358:429   */\n      tag_82\n      jump\t// in\n    tag_107:\n        /* \"#utility.yul\":214:436   */\n      swap3\n      swap2\n      pop\n      pop\n      jump\t// out\n        /* \"#utility.yul\":442:568   */\n    tag_83:\n        /* \"#utility.yul\":479:486   */\n      0x00\n        /* \"#utility.yul\":519:561   */\n      0xffffffffffffffffffffffffffffffffffffffff\n        /* \"#utility.yul\":512:517   */\n      dup3\n        /* \"#utility.yul\":508:562   */\n      and\n        /* \"#utility.yul\":497:562   */\n      swap1\n      pop\n        /* \"#utility.yul\":442:568   */\n      swap2\n      swap1\n      pop\n      jump\t// out\n        /* \"#utility.yul\":574:670   */\n    tag_84:\n        /* \"#utility.yul\":611:618   */\n      0x00\n        /* \"#utility.yul\":640:664   */\n      tag_110\n        /* \"#utility.yul\":658:663   */\n      dup3\n        /* \"#utility.yul\":640:664   */\n      tag_83\n      jump\t// in\n    tag_110:\n        /* \"#utility.yul\":629:664   */\n      swap1\n      pop\n        /* \"#utility.yul\":574:670   */\n      swap2\n      swap1\n      pop\n      jump\t// out\n        /* \"#utility.yul\":676:794   */\n    tag_85:\n        /* \"#utility.yul\":763:787   */\n      tag_112\n        /* \"#utility.yul\":781:786   */\n      dup2\n        /* \"#utility.yul\":763:787   */\n      tag_84\n      jump\t// in\n    tag_112:\n        /* \"#utility.yul\":758:761   */\n      dup3\n        /* \"#utility.yul\":751:788   */\n      mstore\n        /* \"#utility.yul\":676:794   */\n      pop\n      pop\n      jump\t// out\n        /* \"#utility.yul\":800:1022   */\n    tag_28:\n        /* \"#utility.yul\":893:897   */\n      0x00\n        /* \"#utility.yul\":931:933   */\n      0x20\n        /* \"#utility.yul\":920:929   */\n      dup3\n        /* \"#utility.yul\":916:934   */\n      add\n        /* \"#utility.yul\":908:934   */\n      swap1\n      pop\n        /* \"#utility.yul\":944:1015   */\n      tag_114\n        /* \"#utility.yul\":1012:1013   */\n      0x00\n        /* \"#utility.yul\":1001:1010   */\n      dup4\n        /* \"#utility.yul\":997:1014   */\n      add\n        /* \"#utility.yul\":988:994   */\n      dup5\n        /* \"#utility.yul\":944:1015   */\n      tag_85\n      jump\t// in\n    tag_114:\n        /* \"#utility.yul\":800:1022   */\n      swap3\n      swap2\n      pop\n      pop\n      jump\t// out\n        /* \"#utility.yul\":1109:1226   */\n    tag_87:\n        /* \"#utility.yul\":1218:1219   */\n      0x00\n        /* \"#utility.yul\":1215:1216   */\n      dup1\n        /* \"#utility.yul\":1208:1220   */\n      revert\n        /* \"#utility.yul\":1355:1477   */\n    tag_89:\n        /* \"#utility.yul\":1428:1452   */\n      tag_119\n        /* \"#utility.yul\":1446:1451   */\n      dup2\n        /* \"#utility.yul\":1428:1452   */\n      tag_81\n      jump\t// in\n    tag_119:\n        /* \"#utility.yul\":1421:1426   */\n      dup2\n        /* \"#utility.yul\":1418:1453   */\n      eq\n        /* \"#utility.yul\":1408:1471   */\n      tag_120\n      jumpi\n        /* \"#utility.yul\":1467:1468   */\n      0x00\n        /* \"#utility.yul\":1464:1465   */\n      dup1\n        /* \"#utility.yul\":1457:1469   */\n      revert\n        /* \"#utility.yul\":1408:1471   */\n    tag_120:\n        /* \"#utility.yul\":1355:1477   */\n      pop\n      jump\t// out\n        /* \"#utility.yul\":1483:1622   */\n    tag_90:\n        /* \"#utility.yul\":1529:1534   */\n      0x00\n        /* \"#utility.yul\":1567:1573   */\n      dup2\n        /* \"#utility.yul\":1554:1574   */\n      calldataload\n        /* \"#utility.yul\":1545:1574   */\n      swap1\n      pop\n        /* \"#utility.yul\":1583:1616   */\n      tag_122\n        /* \"#utility.yul\":1610:1615   */\n      dup2\n        /* \"#utility.yul\":1583:1616   */\n      tag_89\n      jump\t// in\n    tag_122:\n        /* \"#utility.yul\":1483:1622   */\n      swap3\n      swap2\n      pop\n      pop\n      jump\t// out\n        /* \"#utility.yul\":1628:1957   */\n    tag_32:\n        /* \"#utility.yul\":1687:1693   */\n      0x00\n        /* \"#utility.yul\":1736:1738   */\n      0x20\n        /* \"#utility.yul\":1724:1733   */\n      dup3\n        /* \"#utility.yul\":1715:1722   */\n      dup5\n        /* \"#utility.yul\":1711:1734   */\n      sub\n        /* \"#utility.yul\":1707:1739   */\n      slt\n        /* \"#utility.yul\":1704:1823   */\n      iszero\n      tag_124\n      jumpi\n        /* \"#utility.yul\":1742:1821   */\n      tag_125\n      tag_87\n      jump\t// in\n    tag_125:\n        /* \"#utility.yul\":1704:1823   */\n    tag_124:\n        /* \"#utility.yul\":1862:1863   */\n      0x00\n        /* \"#utility.yul\":1887:1940   */\n      tag_126\n        /* \"#utility.yul\":1932:1939   */\n      dup5\n        /* \"#utility.yul\":1923:1929   */\n      dup3\n        /* \"#utility.yul\":1912:1921   */\n      dup6\n        /* \"#utility.yul\":1908:1930   */\n      add\n        /* \"#utility.yul\":1887:1940   */\n      tag_90\n      jump\t// in\n    tag_126:\n        /* \"#utility.yul\":1877:1940   */\n      swap2\n      pop\n        /* \"#utility.yul\":1833:1950   */\n      pop\n        /* \"#utility.yul\":1628:1957   */\n      swap3\n      swap2\n      pop\n      pop\n      jump\t// out\n        /* \"#utility.yul\":1963:2089   */\n    tag_91:\n        /* \"#utility.yul\":2058:2082   */\n      tag_128\n        /* \"#utility.yul\":2076:2081   */\n      dup2\n        /* \"#utility.yul\":2058:2082   */\n      tag_81\n      jump\t// in\n    tag_128:\n        /* \"#utility.yul\":2053:2056   */\n      dup3\n        /* \"#utility.yul\":2046:2083   */\n      mstore\n        /* \"#utility.yul\":1963:2089   */\n      pop\n      pop\n      jump\t// out\n        /* \"#utility.yul\":2095:2333   */\n    tag_37:\n        /* \"#utility.yul\":2196:2200   */\n      0x00\n        /* \"#utility.yul\":2234:2236   */\n      0x20\n        /* \"#utility.yul\":2223:2232   */\n      dup3\n        /* \"#utility.yul\":2219:2237   */\n      add\n        /* \"#utility.yul\":2211:2237   */\n      swap1\n      pop\n        /* \"#utility.yul\":2247:2326   */\n      tag_130\n        /* \"#utility.yul\":2323:2324   */\n      0x00\n        /* \"#utility.yul\":2312:2321   */\n      dup4\n        /* \"#utility.yul\":2308:2325   */\n      add\n        /* \"#utility.yul\":2299:2305   */\n      dup5\n        /* \"#utility.yul\":2247:2326   */\n      tag_91\n      jump\t// in\n    tag_130:\n        /* \"#utility.yul\":2095:2333   */\n      swap3\n      swap2\n      pop\n      pop\n      jump\t// out\n        /* \"#utility.yul\":2339:2482   */\n    tag_92:\n        /* \"#utility.yul\":2396:2401   */\n      0x00\n        /* \"#utility.yul\":2427:2433   */\n      dup2\n        /* \"#utility.yul\":2421:2434   */\n      mload\n        /* \"#utility.yul\":2412:2434   */\n      swap1\n      pop\n        /* \"#utility.yul\":2443:2476   */\n      tag_132\n        /* \"#utility.yul\":2470:2475   */\n      dup2\n        /* \"#utility.yul\":2443:2476   */\n      tag_89\n      jump\t// in\n    tag_132:\n        /* \"#utility.yul\":2339:2482   */\n      swap3\n      swap2\n      pop\n      pop\n      jump\t// out\n        /* \"#utility.yul\":2488:2839   */\n    tag_41:\n        /* \"#utility.yul\":2558:2564   */\n      0x00\n        /* \"#utility.yul\":2607:2609   */\n      0x20\n        /* \"#utility.yul\":2595:2604   */\n      dup3\n        /* \"#utility.yul\":2586:2593   */\n      dup5\n        /* \"#utility.yul\":2582:2605   */\n      sub\n        /* \"#utility.yul\":2578:2610   */\n      slt\n        /* \"#utility.yul\":2575:2694   */\n      iszero\n      tag_134\n      jumpi\n        /* \"#utility.yul\":2613:2692   */\n      tag_135\n      tag_87\n      jump\t// in\n    tag_135:\n        /* \"#utility.yul\":2575:2694   */\n    tag_134:\n        /* \"#utility.yul\":2733:2734   */\n      0x00\n        /* \"#utility.yul\":2758:2822   */\n      tag_136\n        /* \"#utility.yul\":2814:2821   */\n      dup5\n        /* \"#utility.yul\":2805:2811   */\n      dup3\n        /* \"#utility.yul\":2794:2803   */\n      dup6\n        /* \"#utility.yul\":2790:2812   */\n      add\n        /* \"#utility.yul\":2758:2822   */\n      tag_92\n      jump\t// in\n    tag_136:\n        /* \"#utility.yul\":2748:2822   */\n      swap2\n      pop\n        /* \"#utility.yul\":2704:2832   */\n      pop\n        /* \"#utility.yul\":2488:2839   */\n      swap3\n      swap2\n      pop\n      pop\n      jump\t// out\n        /* \"#utility.yul\":2845:3014   */\n    tag_93:\n        /* \"#utility.yul\":2929:2940   */\n      0x00\n        /* \"#utility.yul\":2963:2969   */\n      dup3\n        /* \"#utility.yul\":2958:2961   */\n      dup3\n        /* \"#utility.yul\":2951:2970   */\n      mstore\n        /* \"#utility.yul\":3003:3007   */\n      0x20\n        /* \"#utility.yul\":2998:3001   */\n      dup3\n        /* \"#utility.yul\":2994:3008   */\n      add\n        /* \"#utility.yul\":2979:3008   */\n      swap1\n      pop\n        /* \"#utility.yul\":2845:3014   */\n      swap3\n      swap2\n      pop\n      pop\n      jump\t// out\n        /* \"#utility.yul\":3020:3195   */\n    tag_94:\n        /* \"#utility.yul\":3160:3187   */\n      0x4e6f7420656e6f7567682065746820746f2070726f6365656400000000000000\n        /* \"#utility.yul\":3156:3157   */\n      0x00\n        /* \"#utility.yul\":3148:3154   */\n      dup3\n        /* \"#utility.yul\":3144:3158   */\n      add\n        /* \"#utility.yul\":3137:3188   */\n      mstore\n        /* \"#utility.yul\":3020:3195   */\n      pop\n      jump\t// out\n        /* \"#utility.yul\":3201:3567   */\n    tag_95:\n        /* \"#utility.yul\":3343:3346   */\n      0x00\n        /* \"#utility.yul\":3364:3431   */\n      tag_140\n        /* \"#utility.yul\":3428:3430   */\n      0x19\n        /* \"#utility.yul\":3423:3426   */\n      dup4\n        /* \"#utility.yul\":3364:3431   */\n      tag_93\n      jump\t// in\n    tag_140:\n        /* \"#utility.yul\":3357:3431   */\n      swap2\n      pop\n        /* \"#utility.yul\":3440:3533   */\n      tag_141\n        /* \"#utility.yul\":3529:3532   */\n      dup3\n        /* \"#utility.yul\":3440:3533   */\n      tag_94\n      jump\t// in\n    tag_141:\n        /* \"#utility.yul\":3558:3560   */\n      0x20\n        /* \"#utility.yul\":3553:3556   */\n      dup3\n        /* \"#utility.yul\":3549:3561   */\n      add\n        /* \"#utility.yul\":3542:3561   */\n      swap1\n      pop\n        /* \"#utility.yul\":3201:3567   */\n      swap2\n      swap1\n      pop\n      jump\t// out\n        /* \"#utility.yul\":3573:3992   */\n    tag_44:\n        /* \"#utility.yul\":3739:3743   */\n      0x00\n        /* \"#utility.yul\":3777:3779   */\n      0x20\n        /* \"#utility.yul\":3766:3775   */\n      dup3\n        /* \"#utility.yul\":3762:3780   */\n      add\n        /* \"#utility.yul\":3754:3780   */\n      swap1\n      pop\n        /* \"#utility.yul\":3826:3835   */\n      dup2\n        /* \"#utility.yul\":3820:3824   */\n      dup2\n        /* \"#utility.yul\":3816:3836   */\n      sub\n        /* \"#utility.yul\":3812:3813   */\n      0x00\n        /* \"#utility.yul\":3801:3810   */\n      dup4\n        /* \"#utility.yul\":3797:3814   */\n      add\n        /* \"#utility.yul\":3790:3837   */\n      mstore\n        /* \"#utility.yul\":3854:3985   */\n      tag_143\n        /* \"#utility.yul\":3980:3984   */\n      dup2\n        /* \"#utility.yul\":3854:3985   */\n      tag_95\n      jump\t// in\n    tag_143:\n        /* \"#utility.yul\":3846:3985   */\n      swap1\n      pop\n        /* \"#utility.yul\":3573:3992   */\n      swap2\n      swap1\n      pop\n      jump\t// out\n        /* \"#utility.yul\":3998:4178   */\n    tag_96:\n        /* \"#utility.yul\":4046:4123   */\n      0x4e487b7100000000000000000000000000000000000000000000000000000000\n        /* \"#utility.yul\":4043:4044   */\n      0x00\n        /* \"#utility.yul\":4036:4124   */\n      mstore\n        /* \"#utility.yul\":4143:4147   */\n      0x11\n        /* \"#utility.yul\":4140:4141   */\n      0x04\n        /* \"#utility.yul\":4133:4148   */\n      mstore\n        /* \"#utility.yul\":4167:4171   */\n      0x24\n        /* \"#utility.yul\":4164:4165   */\n      0x00\n        /* \"#utility.yul\":4157:4172   */\n      revert\n        /* \"#utility.yul\":4184:4375   */\n    tag_47:\n        /* \"#utility.yul\":4224:4227   */\n      0x00\n        /* \"#utility.yul\":4243:4263   */\n      tag_146\n        /* \"#utility.yul\":4261:4262   */\n      dup3\n        /* \"#utility.yul\":4243:4263   */\n      tag_81\n      jump\t// in\n    tag_146:\n        /* \"#utility.yul\":4238:4263   */\n      swap2\n      pop\n        /* \"#utility.yul\":4277:4297   */\n      tag_147\n        /* \"#utility.yul\":4295:4296   */\n      dup4\n        /* \"#utility.yul\":4277:4297   */\n      tag_81\n      jump\t// in\n    tag_147:\n        /* \"#utility.yul\":4272:4297   */\n      swap3\n      pop\n        /* \"#utility.yul\":4320:4321   */\n      dup3\n        /* \"#utility.yul\":4317:4318   */\n      dup3\n        /* \"#utility.yul\":4313:4322   */\n      add\n        /* \"#utility.yul\":4306:4322   */\n      swap1\n      pop\n        /* \"#utility.yul\":4341:4344   */\n      dup1\n        /* \"#utility.yul\":4338:4339   */\n      dup3\n        /* \"#utility.yul\":4335:4345   */\n      gt\n        /* \"#utility.yul\":4332:4368   */\n      iszero\n      tag_148\n      jumpi\n        /* \"#utility.yul\":4348:4366   */\n      tag_149\n      tag_96\n      jump\t// in\n    tag_149:\n        /* \"#utility.yul\":4332:4368   */\n    tag_148:\n        /* \"#utility.yul\":4184:4375   */\n      swap3\n      swap2\n      pop\n      pop\n      jump\t// out\n        /* \"#utility.yul\":4381:4561   */\n    tag_56:\n        /* \"#utility.yul\":4429:4506   */\n      0x4e487b7100000000000000000000000000000000000000000000000000000000\n        /* \"#utility.yul\":4426:4427   */\n      0x00\n        /* \"#utility.yul\":4419:4507   */\n      mstore\n        /* \"#utility.yul\":4526:4530   */\n      0x32\n        /* \"#utility.yul\":4523:4524   */\n      0x04\n        /* \"#utility.yul\":4516:4531   */\n      mstore\n        /* \"#utility.yul\":4550:4554   */\n      0x24\n        /* \"#utility.yul\":4547:4548   */\n      0x00\n        /* \"#utility.yul\":4540:4555   */\n      revert\n        /* \"#utility.yul\":4567:4747   */\n    tag_60:\n        /* \"#utility.yul\":4615:4692   */\n      0x4e487b7100000000000000000000000000000000000000000000000000000000\n        /* \"#utility.yul\":4612:4613   */\n      0x00\n        /* \"#utility.yul\":4605:4693   */\n      mstore\n        /* \"#utility.yul\":4712:4716   */\n      0x41\n        /* \"#utility.yul\":4709:4710   */\n      0x04\n        /* \"#utility.yul\":4702:4717   */\n      mstore\n        /* \"#utility.yul\":4736:4740   */\n      0x24\n        /* \"#utility.yul\":4733:4734   */\n      0x00\n        /* \"#utility.yul\":4726:4741   */\n      revert\n        /* \"#utility.yul\":4753:4900   */\n    tag_97:\n        /* \"#utility.yul\":4854:4865   */\n      0x00\n        /* \"#utility.yul\":4891:4894   */\n      dup2\n        /* \"#utility.yul\":4876:4894   */\n      swap1\n      pop\n        /* \"#utility.yul\":4753:4900   */\n      swap3\n      swap2\n      pop\n      pop\n      jump\t// out\n        /* \"#utility.yul\":4906:5020   */\n    tag_98:\n      pop\n      jump\t// out\n        /* \"#utility.yul\":5026:5424   */\n    tag_99:\n        /* \"#utility.yul\":5185:5188   */\n      0x00\n        /* \"#utility.yul\":5206:5289   */\n      tag_155\n        /* \"#utility.yul\":5287:5288   */\n      0x00\n        /* \"#utility.yul\":5282:5285   */\n      dup4\n        /* \"#utility.yul\":5206:5289   */\n      tag_97\n      jump\t// in\n    tag_155:\n        /* \"#utility.yul\":5199:5289   */\n      swap2\n      pop\n        /* \"#utility.yul\":5298:5391   */\n      tag_156\n        /* \"#utility.yul\":5387:5390   */\n      dup3\n        /* \"#utility.yul\":5298:5391   */\n      tag_98\n      jump\t// in\n    tag_156:\n        /* \"#utility.yul\":5416:5417   */\n      0x00\n        /* \"#utility.yul\":5411:5414   */\n      dup3\n        /* \"#utility.yul\":5407:5418   */\n      add\n        /* \"#utility.yul\":5400:5418   */\n      swap1\n      pop\n        /* \"#utility.yul\":5026:5424   */\n      swap2\n      swap1\n      pop\n      jump\t// out\n        /* \"#utility.yul\":5430:5809   */\n    tag_65:\n        /* \"#utility.yul\":5614:5617   */\n      0x00\n        /* \"#utility.yul\":5636:5783   */\n      tag_158\n        /* \"#utility.yul\":5779:5782   */\n      dup3\n        /* \"#utility.yul\":5636:5783   */\n      tag_99\n      jump\t// in\n    tag_158:\n        /* \"#utility.yul\":5629:5783   */\n      swap2\n      pop\n        /* \"#utility.yul\":5800:5803   */\n      dup2\n        /* \"#utility.yul\":5793:5803   */\n      swap1\n      pop\n        /* \"#utility.yul\":5430:5809   */\n      swap2\n      swap1\n      pop\n      jump\t// out\n        /* \"#utility.yul\":5815:5983   */\n    tag_100:\n        /* \"#utility.yul\":5955:5975   */\n      0x5472616e73616374696f6e206661696c65640000000000000000000000000000\n        /* \"#utility.yul\":5951:5952   */\n      0x00\n        /* \"#utility.yul\":5943:5949   */\n      dup3\n        /* \"#utility.yul\":5939:5953   */\n      add\n        /* \"#utility.yul\":5932:5976   */\n      mstore\n        /* \"#utility.yul\":5815:5983   */\n      pop\n      jump\t// out\n        /* \"#utility.yul\":5989:6355   */\n    tag_101:\n        /* \"#utility.yul\":6131:6134   */\n      0x00\n        /* \"#utility.yul\":6152:6219   */\n      tag_161\n        /* \"#utility.yul\":6216:6218   */\n      0x12\n        /* \"#utility.yul\":6211:6214   */\n      dup4\n        /* \"#utility.yul\":6152:6219   */\n      tag_93\n      jump\t// in\n    tag_161:\n        /* \"#utility.yul\":6145:6219   */\n      swap2\n      pop\n        /* \"#utility.yul\":6228:6321   */\n      tag_162\n        /* \"#utility.yul\":6317:6320   */\n      dup3\n        /* \"#utility.yul\":6228:6321   */\n      tag_100\n      jump\t// in\n    tag_162:\n        /* \"#utility.yul\":6346:6348   */\n      0x20\n        /* \"#utility.yul\":6341:6344   */\n      dup3\n        /* \"#utility.yul\":6337:6349   */\n      add\n        /* \"#utility.yul\":6330:6349   */\n      swap1\n      pop\n        /* \"#utility.yul\":5989:6355   */\n      swap2\n      swap1\n      pop\n      jump\t// out\n        /* \"#utility.yul\":6361:6780   */\n    tag_71:\n        /* \"#utility.yul\":6527:6531   */\n      0x00\n        /* \"#utility.yul\":6565:6567   */\n      0x20\n        /* \"#utility.yul\":6554:6563   */\n      dup3\n        /* \"#utility.yul\":6550:6568   */\n      add\n        /* \"#utility.yul\":6542:6568   */\n      swap1\n      pop\n        /* \"#utility.yul\":6614:6623   */\n      dup2\n        /* \"#utility.yul\":6608:6612   */\n      dup2\n        /* \"#utility.yul\":6604:6624   */\n      sub\n        /* \"#utility.yul\":6600:6601   */\n      0x00\n        /* \"#utility.yul\":6589:6598   */\n      dup4\n        /* \"#utility.yul\":6585:6602   */\n      add\n        /* \"#utility.yul\":6578:6625   */\n      mstore\n        /* \"#utility.yul\":6642:6773   */\n      tag_164\n        /* \"#utility.yul\":6768:6772   */\n      dup2\n        /* \"#utility.yul\":6642:6773   */\n      tag_101\n      jump\t// in\n    tag_164:\n        /* \"#utility.yul\":6634:6773   */\n      swap1\n      pop\n        /* \"#utility.yul\":6361:6780   */\n      swap2\n      swap1\n      pop\n      jump\t// out\n\n    auxdata: 0xa26469706673582212200e0c69fb883cee34a8ba6cb6e5a01ecdd8b0e34bc8bdcd6aff3cecd86d25441b64736f6c63430008180033\n}\n",
				"bytecode": {
					"linkReferences": {
						"contracts/PriceConverter.sol": {
							"PriceConverter": [
								{
									"length": 20,
									"start": 389
								}
							]
						}
					},
					"object": "60a060405234801561000f575f80fd5b503373ffffffffffffffffffffffffffffffffffffffff1660808173ffffffffffffffffffffffffffffffffffffffff168152505060805161094f6100635f395f81816102d101526104f7015261094f5ff3fe60806040526004361061004d575f3560e01c8063098de820146100665780633ccfd60b14610090578063b60d4288146100a6578063dba6335f146100b0578063dc0d3dff146100da5761005c565b3661005c5761005a610116565b005b610064610116565b005b348015610071575f80fd5b5061007a6102c3565b604051610087919061060d565b60405180910390f35b34801561009b575f80fd5b506100a46102cf565b005b6100ae610116565b005b3480156100bb575f80fd5b506100c46104f5565b6040516100d19190610665565b60405180910390f35b3480156100e5575f80fd5b5061010060048036038101906100fb91906106ac565b610519565b60405161010d9190610665565b60405180910390f35b674563918244f400003473__$970d497a1df28a900e3dd97e15a13b1bae$__636e5b6b2890916040518263ffffffff1660e01b815260040161015891906106e6565b602060405180830381865af4158015610173573d5f803e3d5ffd5b505050506040513d601f19601f820116820180604052508101906101979190610713565b10156101d8576040517f08c379a00000000000000000000000000000000000000000000000000000000081526004016101cf90610798565b60405180910390fd5b5f33908060018154018082558091505060019003905f5260205f20015f9091909190916101000a81548173ffffffffffffffffffffffffffffffffffffffff021916908373ffffffffffffffffffffffffffffffffffffffff1602179055503460015f3373ffffffffffffffffffffffffffffffffffffffff1673ffffffffffffffffffffffffffffffffffffffff1681526020019081526020015f205461028091906107e3565b60015f3373ffffffffffffffffffffffffffffffffffffffff1673ffffffffffffffffffffffffffffffffffffffff1681526020019081526020015f2081905550565b674563918244f4000081565b7f000000000000000000000000000000000000000000000000000000000000000073ffffffffffffffffffffffffffffffffffffffff163373ffffffffffffffffffffffffffffffffffffffff1614610354576040517f30cd747100000000000000000000000000000000000000000000000000000000815260040160405180910390fd5b5f5b5f805490508110156103eb575f60015f80848154811061037957610378610816565b5b905f5260205f20015f9054906101000a900473ffffffffffffffffffffffffffffffffffffffff1673ffffffffffffffffffffffffffffffffffffffff1673ffffffffffffffffffffffffffffffffffffffff1681526020019081526020015f20819055508080600101915050610356565b505f67ffffffffffffffff81111561040657610405610843565b5b6040519080825280602002602001820160405280156104345781602001602082028036833780820191505090505b505f9080519060200190610449929190610553565b505f3373ffffffffffffffffffffffffffffffffffffffff164760405161046f9061089d565b5f6040518083038185875af1925050503d805f81146104a9576040519150601f19603f3d011682016040523d82523d5f602084013e6104ae565b606091505b50509050806104f2576040517f08c379a00000000000000000000000000000000000000000000000000000000081526004016104e9906108fb565b60405180910390fd5b50565b7f000000000000000000000000000000000000000000000000000000000000000081565b5f8181548110610527575f80fd5b905f5260205f20015f915054906101000a900473ffffffffffffffffffffffffffffffffffffffff1681565b828054828255905f5260205f209081019282156105c9579160200282015b828111156105c8578251825f6101000a81548173ffffffffffffffffffffffffffffffffffffffff021916908373ffffffffffffffffffffffffffffffffffffffff16021790555091602001919060010190610571565b5b5090506105d691906105da565b5090565b5b808211156105f1575f815f9055506001016105db565b5090565b5f819050919050565b610607816105f5565b82525050565b5f6020820190506106205f8301846105fe565b92915050565b5f73ffffffffffffffffffffffffffffffffffffffff82169050919050565b5f61064f82610626565b9050919050565b61065f81610645565b82525050565b5f6020820190506106785f830184610656565b92915050565b5f80fd5b61068b816105f5565b8114610695575f80fd5b50565b5f813590506106a681610682565b92915050565b5f602082840312156106c1576106c061067e565b5b5f6106ce84828501610698565b91505092915050565b6106e0816105f5565b82525050565b5f6020820190506106f95f8301846106d7565b92915050565b5f8151905061070d81610682565b92915050565b5f602082840312156107285761072761067e565b5b5f610735848285016106ff565b91505092915050565b5f82825260208201905092915050565b7f4e6f7420656e6f7567682065746820746f2070726f63656564000000000000005f82015250565b5f61078260198361073e565b915061078d8261074e565b602082019050919050565b5f6020820190508181035f8301526107af81610776565b9050919050565b7f4e487b71000000000000000000000000000000000000000000000000000000005f52601160045260245ffd5b5f6107ed826105f5565b91506107f8836105f5565b92508282019050808211156108105761080f6107b6565b5b92915050565b7f4e487b71000000000000000000000000000000000000000000000000000000005f52603260045260245ffd5b7f4e487b71000000000000000000000000000000000000000000000000000000005f52604160045260245ffd5b5f81905092915050565b50565b5f6108885f83610870565b91506108938261087a565b5f82019050919050565b5f6108a78261087d565b9150819050919050565b7f5472616e73616374696f6e206661696c656400000000000000000000000000005f82015250565b5f6108e560128361073e565b91506108f0826108b1565b602082019050919050565b5f6020820190508181035f830152610912816108d9565b905091905056fea26469706673582212200e0c69fb883cee34a8ba6cb6e5a01ecdd8b0e34bc8bdcd6aff3cecd86d25441b64736f6c63430008180033",
					"opcodes": "PUSH1 0xA0 PUSH1 0x40 MSTORE CALLVALUE DUP1 ISZERO PUSH2 0xF JUMPI PUSH0 DUP1 REVERT JUMPDEST POP CALLER PUSH20 0xFFFFFFFFFFFFFFFFFFFFFFFFFFFFFFFFFFFFFFFF AND PUSH1 0x80 DUP2 PUSH20 0xFFFFFFFFFFFFFFFFFFFFFFFFFFFFFFFFFFFFFFFF AND DUP2 MSTORE POP POP PUSH1 0x80 MLOAD PUSH2 0x94F PUSH2 0x63 PUSH0 CODECOPY PUSH0 DUP2 DUP2 PUSH2 0x2D1 ADD MSTORE PUSH2 0x4F7 ADD MSTORE PUSH2 0x94F PUSH0 RETURN INVALID PUSH1 0x80 PUSH1 0x40 MSTORE PUSH1 0x4 CALLDATASIZE LT PUSH2 0x4D JUMPI PUSH0 CALLDATALOAD PUSH1 0xE0 SHR DUP1 PUSH4 0x98DE820 EQ PUSH2 0x66 JUMPI DUP1 PUSH4 0x3CCFD60B EQ PUSH2 0x90 JUMPI DUP1 PUSH4 0xB60D4288 EQ PUSH2 0xA6 JUMPI DUP1 PUSH4 0xDBA6335F EQ PUSH2 0xB0 JUMPI DUP1 PUSH4 0xDC0D3DFF EQ PUSH2 0xDA JUMPI PUSH2 0x5C JUMP JUMPDEST CALLDATASIZE PUSH2 0x5C JUMPI PUSH2 0x5A PUSH2 0x116 JUMP JUMPDEST STOP JUMPDEST PUSH2 0x64 PUSH2 0x116 JUMP JUMPDEST STOP JUMPDEST CALLVALUE DUP1 ISZERO PUSH2 0x71 JUMPI PUSH0 DUP1 REVERT JUMPDEST POP PUSH2 0x7A PUSH2 0x2C3 JUMP JUMPDEST PUSH1 0x40 MLOAD PUSH2 0x87 SWAP2 SWAP1 PUSH2 0x60D JUMP JUMPDEST PUSH1 0x40 MLOAD DUP1 SWAP2 SUB SWAP1 RETURN JUMPDEST CALLVALUE DUP1 ISZERO PUSH2 0x9B JUMPI PUSH0 DUP1 REVERT JUMPDEST POP PUSH2 0xA4 PUSH2 0x2CF JUMP JUMPDEST STOP JUMPDEST PUSH2 0xAE PUSH2 0x116 JUMP JUMPDEST STOP JUMPDEST CALLVALUE DUP1 ISZERO PUSH2 0xBB JUMPI PUSH0 DUP1 REVERT JUMPDEST POP PUSH2 0xC4 PUSH2 0x4F5 JUMP JUMPDEST PUSH1 0x40 MLOAD PUSH2 0xD1 SWAP2 SWAP1 PUSH2 0x665 JUMP JUMPDEST PUSH1 0x40 MLOAD DUP1 SWAP2 SUB SWAP1 RETURN JUMPDEST CALLVALUE DUP1 ISZERO PUSH2 0xE5 JUMPI PUSH0 DUP1 REVERT JUMPDEST POP PUSH2 0x100 PUSH1 0x4 DUP1 CALLDATASIZE SUB DUP2 ADD SWAP1 PUSH2 0xFB SWAP2 SWAP1 PUSH2 0x6AC JUMP JUMPDEST PUSH2 0x519 JUMP JUMPDEST PUSH1 0x40 MLOAD PUSH2 0x10D SWAP2 SWAP1 PUSH2 0x665 JUMP JUMPDEST PUSH1 0x40 MLOAD DUP1 SWAP2 SUB SWAP1 RETURN JUMPDEST PUSH8 0x4563918244F40000 CALLVALUE PUSH20 0x0 PUSH4 0x6E5B6B28 SWAP1 SWAP2 PUSH1 0x40 MLOAD DUP3 PUSH4 0xFFFFFFFF AND PUSH1 0xE0 SHL DUP2 MSTORE PUSH1 0x4 ADD PUSH2 0x158 SWAP2 SWAP1 PUSH2 0x6E6 JUMP JUMPDEST PUSH1 0x20 PUSH1 0x40 MLOAD DUP1 DUP4 SUB DUP2 DUP7 GAS DELEGATECALL ISZERO DUP1 ISZERO PUSH2 0x173 JUMPI RETURNDATASIZE PUSH0 DUP1 RETURNDATACOPY RETURNDATASIZE PUSH0 REVERT JUMPDEST POP POP POP POP PUSH1 0x40 MLOAD RETURNDATASIZE PUSH1 0x1F NOT PUSH1 0x1F DUP3 ADD AND DUP3 ADD DUP1 PUSH1 0x40 MSTORE POP DUP2 ADD SWAP1 PUSH2 0x197 SWAP2 SWAP1 PUSH2 0x713 JUMP JUMPDEST LT ISZERO PUSH2 0x1D8 JUMPI PUSH1 0x40 MLOAD PUSH32 0x8C379A000000000000000000000000000000000000000000000000000000000 DUP2 MSTORE PUSH1 0x4 ADD PUSH2 0x1CF SWAP1 PUSH2 0x798 JUMP JUMPDEST PUSH1 0x40 MLOAD DUP1 SWAP2 SUB SWAP1 REVERT JUMPDEST PUSH0 CALLER SWAP1 DUP1 PUSH1 0x1 DUP2 SLOAD ADD DUP1 DUP3 SSTORE DUP1 SWAP2 POP POP PUSH1 0x1 SWAP1 SUB SWAP1 PUSH0 MSTORE PUSH1 0x20 PUSH0 KECCAK256 ADD PUSH0 SWAP1 SWAP2 SWAP1 SWAP2 SWAP1 SWAP2 PUSH2 0x100 EXP DUP2 SLOAD DUP2 PUSH20 0xFFFFFFFFFFFFFFFFFFFFFFFFFFFFFFFFFFFFFFFF MUL NOT AND SWAP1 DUP4 PUSH20 0xFFFFFFFFFFFFFFFFFFFFFFFFFFFFFFFFFFFFFFFF AND MUL OR SWAP1 SSTORE POP CALLVALUE PUSH1 0x1 PUSH0 CALLER PUSH20 0xFFFFFFFFFFFFFFFFFFFFFFFFFFFFFFFFFFFFFFFF AND PUSH20 0xFFFFFFFFFFFFFFFFFFFFFFFFFFFFFFFFFFFFFFFF AND DUP2 MSTORE PUSH1 0x20 ADD SWAP1 DUP2 MSTORE PUSH1 0x20 ADD PUSH0 KECCAK256 SLOAD PUSH2 0x280 SWAP2 SWAP1 PUSH2 0x7E3 JUMP JUMPDEST PUSH1 0x1 PUSH0 CALLER PUSH20 0xFFFFFFFFFFFFFFFFFFFFFFFFFFFFFFFFFFFFFFFF AND PUSH20 0xFFFFFFFFFFFFFFFFFFFFFFFFFFFFFFFFFFFFFFFF AND DUP2 MSTORE PUSH1 0x20 ADD SWAP1 DUP2 MSTORE PUSH1 0x20 ADD PUSH0 KECCAK256 DUP2 SWAP1 SSTORE POP JUMP JUMPDEST PUSH8 0x4563918244F40000 DUP2 JUMP JUMPDEST PUSH32 0x0 PUSH20 0xFFFFFFFFFFFFFFFFFFFFFFFFFFFFFFFFFFFFFFFF AND CALLER PUSH20 0xFFFFFFFFFFFFFFFFFFFFFFFFFFFFFFFFFFFFFFFF AND EQ PUSH2 0x354 JUMPI PUSH1 0x40 MLOAD PUSH32 0x30CD747100000000000000000000000000000000000000000000000000000000 DUP2 MSTORE PUSH1 0x4 ADD PUSH1 0x40 MLOAD DUP1 SWAP2 SUB SWAP1 REVERT JUMPDEST PUSH0 JUMPDEST PUSH0 DUP1 SLOAD SWAP1 POP DUP2 LT ISZERO PUSH2 0x3EB JUMPI PUSH0 PUSH1 0x1 PUSH0 DUP1 DUP5 DUP2 SLOAD DUP2 LT PUSH2 0x379 JUMPI PUSH2 0x378 PUSH2 0x816 JUMP JUMPDEST JUMPDEST SWAP1 PUSH0 MSTORE PUSH1 0x20 PUSH0 KECCAK256 ADD PUSH0 SWAP1 SLOAD SWAP1 PUSH2 0x100 EXP SWAP1 DIV PUSH20 0xFFFFFFFFFFFFFFFFFFFFFFFFFFFFFFFFFFFFFFFF AND PUSH20 0xFFFFFFFFFFFFFFFFFFFFFFFFFFFFFFFFFFFFFFFF AND PUSH20 0xFFFFFFFFFFFFFFFFFFFFFFFFFFFFFFFFFFFFFFFF AND DUP2 MSTORE PUSH1 0x20 ADD SWAP1 DUP2 MSTORE PUSH1 0x20 ADD PUSH0 KECCAK256 DUP2 SWAP1 SSTORE POP DUP1 DUP1 PUSH1 0x1 ADD SWAP2 POP POP PUSH2 0x356 JUMP JUMPDEST POP PUSH0 PUSH8 0xFFFFFFFFFFFFFFFF DUP2 GT ISZERO PUSH2 0x406 JUMPI PUSH2 0x405 PUSH2 0x843 JUMP JUMPDEST JUMPDEST PUSH1 0x40 MLOAD SWAP1 DUP1 DUP3 MSTORE DUP1 PUSH1 0x20 MUL PUSH1 0x20 ADD DUP3 ADD PUSH1 0x40 MSTORE DUP1 ISZERO PUSH2 0x434 JUMPI DUP2 PUSH1 0x20 ADD PUSH1 0x20 DUP3 MUL DUP1 CALLDATASIZE DUP4 CALLDATACOPY DUP1 DUP3 ADD SWAP2 POP POP SWAP1 POP JUMPDEST POP PUSH0 SWAP1 DUP1 MLOAD SWAP1 PUSH1 0x20 ADD SWAP1 PUSH2 0x449 SWAP3 SWAP2 SWAP1 PUSH2 0x553 JUMP JUMPDEST POP PUSH0 CALLER PUSH20 0xFFFFFFFFFFFFFFFFFFFFFFFFFFFFFFFFFFFFFFFF AND SELFBALANCE PUSH1 0x40 MLOAD PUSH2 0x46F SWAP1 PUSH2 0x89D JUMP JUMPDEST PUSH0 PUSH1 0x40 MLOAD DUP1 DUP4 SUB DUP2 DUP6 DUP8 GAS CALL SWAP3 POP POP POP RETURNDATASIZE DUP1 PUSH0 DUP2 EQ PUSH2 0x4A9 JUMPI PUSH1 0x40 MLOAD SWAP2 POP PUSH1 0x1F NOT PUSH1 0x3F RETURNDATASIZE ADD AND DUP3 ADD PUSH1 0x40 MSTORE RETURNDATASIZE DUP3 MSTORE RETURNDATASIZE PUSH0 PUSH1 0x20 DUP5 ADD RETURNDATACOPY PUSH2 0x4AE JUMP JUMPDEST PUSH1 0x60 SWAP2 POP JUMPDEST POP POP SWAP1 POP DUP1 PUSH2 0x4F2 JUMPI PUSH1 0x40 MLOAD PUSH32 0x8C379A000000000000000000000000000000000000000000000000000000000 DUP2 MSTORE PUSH1 0x4 ADD PUSH2 0x4E9 SWAP1 PUSH2 0x8FB JUMP JUMPDEST PUSH1 0x40 MLOAD DUP1 SWAP2 SUB SWAP1 REVERT JUMPDEST POP JUMP JUMPDEST PUSH32 0x0 DUP2 JUMP JUMPDEST PUSH0 DUP2 DUP2 SLOAD DUP2 LT PUSH2 0x527 JUMPI PUSH0 DUP1 REVERT JUMPDEST SWAP1 PUSH0 MSTORE PUSH1 0x20 PUSH0 KECCAK256 ADD PUSH0 SWAP2 POP SLOAD SWAP1 PUSH2 0x100 EXP SWAP1 DIV PUSH20 0xFFFFFFFFFFFFFFFFFFFFFFFFFFFFFFFFFFFFFFFF AND DUP2 JUMP JUMPDEST DUP3 DUP1 SLOAD DUP3 DUP3 SSTORE SWAP1 PUSH0 MSTORE PUSH1 0x20 PUSH0 KECCAK256 SWAP1 DUP2 ADD SWAP3 DUP3 ISZERO PUSH2 0x5C9 JUMPI SWAP2 PUSH1 0x20 MUL DUP3 ADD JUMPDEST DUP3 DUP2 GT ISZERO PUSH2 0x5C8 JUMPI DUP3 MLOAD DUP3 PUSH0 PUSH2 0x100 EXP DUP2 SLOAD DUP2 PUSH20 0xFFFFFFFFFFFFFFFFFFFFFFFFFFFFFFFFFFFFFFFF MUL NOT AND SWAP1 DUP4 PUSH20 0xFFFFFFFFFFFFFFFFFFFFFFFFFFFFFFFFFFFFFFFF AND MUL OR SWAP1 SSTORE POP SWAP2 PUSH1 0x20 ADD SWAP2 SWAP1 PUSH1 0x1 ADD SWAP1 PUSH2 0x571 JUMP JUMPDEST JUMPDEST POP SWAP1 POP PUSH2 0x5D6 SWAP2 SWAP1 PUSH2 0x5DA JUMP JUMPDEST POP SWAP1 JUMP JUMPDEST JUMPDEST DUP1 DUP3 GT ISZERO PUSH2 0x5F1 JUMPI PUSH0 DUP2 PUSH0 SWAP1 SSTORE POP PUSH1 0x1 ADD PUSH2 0x5DB JUMP JUMPDEST POP SWAP1 JUMP JUMPDEST PUSH0 DUP2 SWAP1 POP SWAP2 SWAP1 POP JUMP JUMPDEST PUSH2 0x607 DUP2 PUSH2 0x5F5 JUMP JUMPDEST DUP3 MSTORE POP POP JUMP JUMPDEST PUSH0 PUSH1 0x20 DUP3 ADD SWAP1 POP PUSH2 0x620 PUSH0 DUP4 ADD DUP5 PUSH2 0x5FE JUMP JUMPDEST SWAP3 SWAP2 POP POP JUMP JUMPDEST PUSH0 PUSH20 0xFFFFFFFFFFFFFFFFFFFFFFFFFFFFFFFFFFFFFFFF DUP3 AND SWAP1 POP SWAP2 SWAP1 POP JUMP JUMPDEST PUSH0 PUSH2 0x64F DUP3 PUSH2 0x626 JUMP JUMPDEST SWAP1 POP SWAP2 SWAP1 POP JUMP JUMPDEST PUSH2 0x65F DUP2 PUSH2 0x645 JUMP JUMPDEST DUP3 MSTORE POP POP JUMP JUMPDEST PUSH0 PUSH1 0x20 DUP3 ADD SWAP1 POP PUSH2 0x678 PUSH0 DUP4 ADD DUP5 PUSH2 0x656 JUMP JUMPDEST SWAP3 SWAP2 POP POP JUMP JUMPDEST PUSH0 DUP1 REVERT JUMPDEST PUSH2 0x68B DUP2 PUSH2 0x5F5 JUMP JUMPDEST DUP2 EQ PUSH2 0x695 JUMPI PUSH0 DUP1 REVERT JUMPDEST POP JUMP JUMPDEST PUSH0 DUP2 CALLDATALOAD SWAP1 POP PUSH2 0x6A6 DUP2 PUSH2 0x682 JUMP JUMPDEST SWAP3 SWAP2 POP POP JUMP JUMPDEST PUSH0 PUSH1 0x20 DUP3 DUP5 SUB SLT ISZERO PUSH2 0x6C1 JUMPI PUSH2 0x6C0 PUSH2 0x67E JUMP JUMPDEST JUMPDEST PUSH0 PUSH2 0x6CE DUP5 DUP3 DUP6 ADD PUSH2 0x698 JUMP JUMPDEST SWAP2 POP POP SWAP3 SWAP2 POP POP JUMP JUMPDEST PUSH2 0x6E0 DUP2 PUSH2 0x5F5 JUMP JUMPDEST DUP3 MSTORE POP POP JUMP JUMPDEST PUSH0 PUSH1 0x20 DUP3 ADD SWAP1 POP PUSH2 0x6F9 PUSH0 DUP4 ADD DUP5 PUSH2 0x6D7 JUMP JUMPDEST SWAP3 SWAP2 POP POP JUMP JUMPDEST PUSH0 DUP2 MLOAD SWAP1 POP PUSH2 0x70D DUP2 PUSH2 0x682 JUMP JUMPDEST SWAP3 SWAP2 POP POP JUMP JUMPDEST PUSH0 PUSH1 0x20 DUP3 DUP5 SUB SLT ISZERO PUSH2 0x728 JUMPI PUSH2 0x727 PUSH2 0x67E JUMP JUMPDEST JUMPDEST PUSH0 PUSH2 0x735 DUP5 DUP3 DUP6 ADD PUSH2 0x6FF JUMP JUMPDEST SWAP2 POP POP SWAP3 SWAP2 POP POP JUMP JUMPDEST PUSH0 DUP3 DUP3 MSTORE PUSH1 0x20 DUP3 ADD SWAP1 POP SWAP3 SWAP2 POP POP JUMP JUMPDEST PUSH32 0x4E6F7420656E6F7567682065746820746F2070726F6365656400000000000000 PUSH0 DUP3 ADD MSTORE POP JUMP JUMPDEST PUSH0 PUSH2 0x782 PUSH1 0x19 DUP4 PUSH2 0x73E JUMP JUMPDEST SWAP2 POP PUSH2 0x78D DUP3 PUSH2 0x74E JUMP JUMPDEST PUSH1 0x20 DUP3 ADD SWAP1 POP SWAP2 SWAP1 POP JUMP JUMPDEST PUSH0 PUSH1 0x20 DUP3 ADD SWAP1 POP DUP2 DUP2 SUB PUSH0 DUP4 ADD MSTORE PUSH2 0x7AF DUP2 PUSH2 0x776 JUMP JUMPDEST SWAP1 POP SWAP2 SWAP1 POP JUMP JUMPDEST PUSH32 0x4E487B7100000000000000000000000000000000000000000000000000000000 PUSH0 MSTORE PUSH1 0x11 PUSH1 0x4 MSTORE PUSH1 0x24 PUSH0 REVERT JUMPDEST PUSH0 PUSH2 0x7ED DUP3 PUSH2 0x5F5 JUMP JUMPDEST SWAP2 POP PUSH2 0x7F8 DUP4 PUSH2 0x5F5 JUMP JUMPDEST SWAP3 POP DUP3 DUP3 ADD SWAP1 POP DUP1 DUP3 GT ISZERO PUSH2 0x810 JUMPI PUSH2 0x80F PUSH2 0x7B6 JUMP JUMPDEST JUMPDEST SWAP3 SWAP2 POP POP JUMP JUMPDEST PUSH32 0x4E487B7100000000000000000000000000000000000000000000000000000000 PUSH0 MSTORE PUSH1 0x32 PUSH1 0x4 MSTORE PUSH1 0x24 PUSH0 REVERT JUMPDEST PUSH32 0x4E487B7100000000000000000000000000000000000000000000000000000000 PUSH0 MSTORE PUSH1 0x41 PUSH1 0x4 MSTORE PUSH1 0x24 PUSH0 REVERT JUMPDEST PUSH0 DUP2 SWAP1 POP SWAP3 SWAP2 POP POP JUMP JUMPDEST POP JUMP JUMPDEST PUSH0 PUSH2 0x888 PUSH0 DUP4 PUSH2 0x870 JUMP JUMPDEST SWAP2 POP PUSH2 0x893 DUP3 PUSH2 0x87A JUMP JUMPDEST PUSH0 DUP3 ADD SWAP1 POP SWAP2 SWAP1 POP JUMP JUMPDEST PUSH0 PUSH2 0x8A7 DUP3 PUSH2 0x87D JUMP JUMPDEST SWAP2 POP DUP2 SWAP1 POP SWAP2 SWAP1 POP JUMP JUMPDEST PUSH32 0x5472616E73616374696F6E206661696C65640000000000000000000000000000 PUSH0 DUP3 ADD MSTORE POP JUMP JUMPDEST PUSH0 PUSH2 0x8E5 PUSH1 0x12 DUP4 PUSH2 0x73E JUMP JUMPDEST SWAP2 POP PUSH2 0x8F0 DUP3 PUSH2 0x8B1 JUMP JUMPDEST PUSH1 0x20 DUP3 ADD SWAP1 POP SWAP2 SWAP1 POP JUMP JUMPDEST PUSH0 PUSH1 0x20 DUP3 ADD SWAP1 POP DUP2 DUP2 SUB PUSH0 DUP4 ADD MSTORE PUSH2 0x912 DUP2 PUSH2 0x8D9 JUMP JUMPDEST SWAP1 POP SWAP2 SWAP1 POP JUMP INVALID LOG2 PUSH5 0x6970667358 0x22 SLT KECCAK256 0xE 0xC PUSH10 0xFB883CEE34A8BA6CB6E5 LOG0 0x1E 0xCD 0xD8 0xB0 0xE3 0x4B 0xC8 0xBD 0xCD PUSH11 0xFF3CECD86D25441B64736F PUSH13 0x63430008180033000000000000 "
				},
				"gasEstimates": {
					"creation": {
						"codeDepositCost": "476600",
						"executionCost": "infinite",
						"totalCost": "infinite"
					},
					"external": {
						"": "infinite",
						"fund()": "infinite",
						"funders(uint256)": "5009",
						"i_owner()": "infinite",
						"minimumUsd()": "303",
						"withdraw()": "infinite"
					}
				},
				"methodIdentifiers": {
					"fund()": "b60d4288",
					"funders(uint256)": "dc0d3dff",
					"i_owner()": "dba6335f",
					"minimumUsd()": "098de820",
					"withdraw()": "3ccfd60b"
				}
			},
			"storageLayout": {
				"storage": [
					{
						"astId": 60,
						"contract": "contracts/FundMe.sol:FundMe",
						"label": "funders",
						"offset": 0,
						"slot": "0",
						"type": "t_array(t_address)dyn_storage"
					},
					{
						"astId": 64,
						"contract": "contracts/FundMe.sol:FundMe",
						"label": "addressToAmountFunded",
						"offset": 0,
						"slot": "1",
						"type": "t_mapping(t_address,t_uint256)"
					}
				],
				"types": {
					"t_address": {
						"encoding": "inplace",
						"label": "address",
						"numberOfBytes": "20"
					},
					"t_array(t_address)dyn_storage": {
						"base": "t_address",
						"encoding": "dynamic_array",
						"label": "address[]",
						"numberOfBytes": "32"
					},
					"t_mapping(t_address,t_uint256)": {
						"encoding": "mapping",
						"key": "t_address",
						"label": "mapping(address => uint256)",
						"numberOfBytes": "32",
						"value": "t_uint256"
					},
					"t_uint256": {
						"encoding": "inplace",
						"label": "uint256",
						"numberOfBytes": "32"
					}
				}
			},
			"userdoc": {
				"kind": "user",
				"methods": {},
				"version": 1
			}
		}
	}
}